:03000000020003F8
:0F000300758120E4787FF6D8FD75A0FF020027F5
:0D001200758000C2A0C2A1C2A77580142293
:04001F0075800A22BC
:0400230075801422AE
:10002700120012E4F508F509F50AF50BF50CF50DC4
:02003700F50EC4
:0300390030B214CE
:10003C00050BE50B7002050AE4FE7F641201F73034
:02004C00B202FE
:0B004E0080FB30B31AE50A450B60147C
:10005900E50B150B7002150AE4FE7F641201F730F7
:02006900B302E0
:08006B0080FBE50A450B607EF5
:10007300750E01E50864016005E509B40136E51074
:060083006428450F702EF9
:10008900E4FE7F641201F7050DE50D7002050CAE63
:100099000CAF0D12017BE50CB40005E50DB40600AB
:1000A900E44004F50CF50DF508750901803AE508F9
:0200B9007015C0
:1000BB0012001FE4FE7F641201F7E4F50F751001C7
:1000CB007508018021E508B4011CE50FB40006E5B5
:0700DB0010B42701D3500F00
:1000E200E4FE7F641201F70510E5107002050FE5CA
:0A00F2000A450B7066E50EB40161CB
:0D00FC00E511B4011FE513642845127017CB
:10010900E4FE7F641201F7120023E4F511F512F5FC
:0C01190013F50FF510803DE509B4011747
:10012500120222E4FE7F641201F7E4F51275130151
:10013500751101F5098021E511B4011CE512B40022
:0901450006E513B42701D3500FA5
:10014E00E4FE7F641201F70513E51370020512E554
:08015E000A450B6003020039A1
:05016600C2A03091056C
:0B016B00C2A1020039309103020039EC
:05017600D2A1020039D6
:08017B00758009C2A130900457
:07018300C2A08005209002DC
:10018A00D2A020A70FEE6480B48004EFB40600402A
:01019A000361
:10019B00D2A72230A70EEE6480B48004EFB4060021
:0201AB00400210
:0301AD00C2A722C4
:1001B0008E188F1985181A85191BE51A451B60368C
:1001C000751C01751DE6E51C451D6020E4F51E75D6
:1001D0001FFFE51E451F600AE51F151F70F4151E61
:1001E00080F0E51D151D70DE151C80DAE51B151B62
:0701F00070C8151A80C4223B
:1001F7008E148F15E51445156020E4F5167517C89C
:10020700E5164517600AE517151770F4151680F0FF
:0B021700E515151570DE151480DA22C5
:0602220075800BC2A7224B
:00000001FF
