:03000000020003F8
:0F00030075811EE4787FF6D8FD75A0FF02003AE4
:0B001200758000C2A0C2A175801422FE
:04001D0075800A22BE
:08002100758009C2A1309003B3
:06002900C2A0222090029B
:03002F00D2A0223A
:0400320075800B22A8
:04003600758014229B
:0E003A00120012E4F508F509F50AF50BF50CB5
:0300480030B214BF
:10004B00050BE50B7002050AE4FE7F641201B53067
:02005B00B202EF
:0B005D0080FB30B31AE50A450B60146D
:10006800E50B150B7002150AE4FE7F641201B5302A
:02007800B302D1
:08007A0080FBE50A450B606202
:10008200750C01E50864016005E509B4011AE50E85
:060092006428450D701208
:10009800E4FE7F641201B5120021E4F50875090138
:0600A800803AE508701526
:1000AE0012001DE4FE7F641201B5E4F50D750E011C
:1000BE007508018021E508B4011CE50DB40006E5C4
:0700CE000EB42701D3500F0F
:1000D500E4FE7F641201B5050EE50E7002050DE51F
:0A00E5000A450B7066E50CB40161DA
:0D00EF00E50FB4011FE511642845107017DE
:1000FC00E4FE7F641201B5120036E4F50FF510F53D
:0C010C0011F50DF50E803DE509B401175A
:10011800120032E4FE7F641201B5E4F51075110196
:10012800750F01F5098021E50FB4011CE510B40035
:0901380006E511B42701D3500FB4
:10014100E4FE7F641201B50511E51170020510E5A9
:080151000A450B60030200489F
:05015900C2A030910579
:0B015E00C2A1020048309103020048DB
:05016900D2A1020048D4
:10016E008E168F17851618851719E51845196036DE
:10017E00751A01751BE6E51A451B6020E4F51C7522
:10018E001DFFE51C451D600AE51D151D70F4151CAF
:10019E0080F0E51B151B70DE151A80DAE5191519AE
:0701AE0070C8151880C4227F
:1001B5008E128F13E51245136020E4F5147515C8EA
:1001C500E5144515600AE515151570F4151480F04C
:0B01D500E513151370DE151280DA220E
:00000001FF
