:03000000020003F8
:0F000300758120E4787FF6D8FD75A0FF020024F8
:0A00120075800075A00075801422AF
:04001C0075800A22BF
:0400200075801422B1
:10002400120012E4F508F509F50AF50BF50CF50DC7
:02003400F50EC7
:0300360030B214D1
:10003900050BE50B7002050AE4FE7F641201F4303A
:02004900B20201
:0B004B0080FB30B31AE50A450B60147F
:10005600E50B150B7002150AE4FE7F641201F430FD
:02006600B302E3
:0800680080FBE50A450B607EF8
:10007000750E01E50864016005E509B40136E51077
:060080006428450F702EFC
:10008600E4FE7F641201F4050DE50D7002050CAE69
:100096000CAF0D120178E50CB40005E50DB40600B1
:1000A600E44004F50CF50DF508750901803AE508FC
:0200B6007015C3
:1000B80012001CE4FE7F641201F4E4F50F751001D0
:1000C8007508018021E508B4011CE50FB40006E5B8
:0700D80010B42701D3500F03
:1000DF00E4FE7F641201F40510E5107002050FE5D0
:0A00EF000A450B7066E50EB40161CE
:0D00F900E511B4011FE513642845127017CE
:10010600E4FE7F641201F4120020E4F511F512F505
:0C01160013F50FF510803DE509B401174A
:1001220012021FE4FE7F641201F4E4F5127513015A
:10013200751101F5098021E511B4011CE512B40025
:0901420006E513B42701D3500FA8
:10014B00E4FE7F641201F40513E51370020512E55A
:08015B000A450B6003020036A7
:05016300C2A03091056F
:0B016800C2A1020036309103020036F5
:05017300D2A1020036DC
:08017800758009C2A13090045A
:07018000C2A08005209002DF
:10018700D2A020A70FEE6480B48004EFB40600402D
:010197000364
:10019800D2A72230A70EEE6480B48004EFB4060024
:0201A800400213
:0301AA00C2A722C7
:1001AD008E188F1985181A85191BE51A451B60368F
:1001BD00751C01751DE6E51C451D6020E4F51E75D9
:1001CD001FFFE51E451F600AE51F151F70F4151E64
:1001DD0080F0E51D151D70DE151C80DAE51B151B65
:0701ED0070C8151A80C4223E
:1001F4008E148F15E51445156020E4F5167517C89F
:10020400E5164517600AE517151770F4151680F002
:0B021400E515151570DE151480DA22C8
:06021F0075800BC2A7224E
:00000001FF
