:03000000020003F8
:0F00030075811EE4787FF6D8FD75A0FF0200120C
:0E001200120143E4F508F509F50AF50BF50CAB
:06002000850BA030B214B4
:10002600050BE50B7002050AE4FE7F6412019430AD
:02003600B20214
:0B00380080FB30B31AE50A450B601492
:10004300E50B150B7002150AE4FE7F641201943070
:02005300B302F6
:0800550080FBE50A450B606227
:10005D00750C01E50864016005E509B4011AE50EAA
:06006D006428450D70122D
:10007300E4FE7F641201941201C3E4F508750901DB
:06008300803AE50870154B
:100089001201BFE4FE7F64120194E4F50D750E01BF
:100099007508018021E508B4011CE50DB40006E5E9
:0700A9000EB42701D3500F34
:1000B000E4FE7F64120194050EE50E7002050DE565
:1000C0000A450B6003020020E50CB4010280030224
:0200D00000200E
:0D00D200E50FB40120E511642845107018F9
:1000DF00E4FE7F641201941201CBE4F50FF510F5E5
:0D00EF0011F50DF50E020020E509B4011811
:1000FC001201C7E4FE7F64120194E4F5107511013E
:10010C00750F01F509020020E50FB401028003020E
:10011C000020E510B40006E511B42701D34003021A
:02012C000020B1
:10012E00E4FE7F641201940511E5116003020020C4
:05013E00051002002085
:0A01430075800075A000758014227D
:10014D008E168F17851618851719E51845196036FF
:10015D00751A01751BE6E51A451B6020E4F51C7543
:10016D001DFFE51C451D600AE51D151D70F4151CD0
:10017D0080F0E51B151B70DE151A80DAE5191519CF
:07018D0070C8151880C422A0
:100194008E128F13E51245136020E4F5147515C80B
:1001A400E5144515600AE515151570F4151480F06D
:0B01B400E513151370DE151280DA222F
:0401BF0075800A221B
:0401C3007580092218
:0401C70075800B2212
:0401CB007580142205
:00000001FF
