:03000000020003F8
:0F000300758120E4787FF6D8FD75A0FF0200120A
:1000120012021DE4F508F509F50AF50BF50CF50DCC
:02002200F50ED9
:0300240030B214E3
:10002700050BE50B7002050AE4FE7F641201E93057
:02003700B20213
:0B00390080FB30B31AE50A450B601491
:10004400E50B150B7002150AE4FE7F641201E9301A
:02005400B302F5
:0800560080FBE50A450B607E0A
:10005E00750E01E50864016005E509B40136E51089
:06006E006428450F702E0E
:10007400E4FE7F641201E9050DE50D7002050CAE86
:100084000CAF0D120166E50CB40005E50DB40600D5
:10009400E44004F50CF50DF508750901803AE5080E
:0200A4007015D5
:1000A600120226E4FE7F641201E9E4F50F751001E1
:1000B6007508018021E508B4011CE50FB40006E5CA
:0700C60010B42701D3500F15
:1000CD00E4FE7F641201E90510E5107002050FE5ED
:0A00DD000A450B7066E50EB40161E0
:0D00E700E511B4011FE513642845127017E0
:1000F400E4FE7F641201E912022DE4F511F512F514
:0C01040013F50FF510803DE509B401175C
:10011000120214E4FE7F641201E9E4F51275130182
:10012000751101F5098021E511B4011CE512B40037
:0901300006E513B42701D3500FBA
:10013900E4FE7F641201E90513E51370020512E577
:080149000A450B6003020024CB
:05015100C2A63091057B
:0B015600C2A702002430910302002425
:05016100D2A7020024FA
:0B016600D2A4C2A3C2A2C2A730900422
:07017100C2A68005209002E8
:10017800D2A620A111EE6480B48004EFB40600403A
:010188000571
:10018900D2A1D2A02230A110EE6480B48004EFB4D1
:040199000600400418
:05019D00C2A1C2A02276
:1001A2008E188F1985181A85191BE51A451B60369A
:1001B200751C01751DE6E51C451D6020E4F51E75E4
:1001C2001FFFE51E451F600AE51F151F70F4151E6F
:1001D20080F0E51D151D70DE151C80DAE51B151B70
:0701E20070C8151A80C42249
:1001E9008E148F15E51445156020E4F5167517C8AA
:1001F900E5164517600AE517151770F4151680F00E
:0B020900E515151570DE151480DA22D3
:09021400D2A4D2A3C2A2C2A1220D
:09021D0075800075A00002022D9D
:07022600C2A4D2A3C2A22270
:07022D00C2A4C2A3D2A22269
:00000001FF
