:03000000020003F8
:0F00030075811EE4787FF6D8FD75A0FF0200120C
:0E001200120146E4F508F509F50AF50BF50CA8
:0300200030B214E7
:10002300050BE50B7002050AE4FE7F6412019830AC
:02003300B20217
:0B00350080FB30B31AE50A450B601495
:10004000E50B150B7002150AE4FE7F64120198306F
:02005000B302F9
:0800520080FBE50A450B60622A
:10005A00750C01E50864016005E509B4011AE50EAD
:06006A006428450D701230
:10007000E4FE7F641201981201C7E4F508750901D6
:06008000803AE50870154E
:100086001201C3E4FE7F64120198E4F50D750E01BA
:100096007508018021E508B4011CE50DB40006E5EC
:0700A6000EB42701D3500F37
:1000AD00E4FE7F64120198050EE50E7002050DE564
:0A00BD000A450B7066E50CB4016102
:0D00C700E50FB4011FE51164284510701706
:1000D400E4FE7F641201981201DCE4F50FF510F5DB
:0C00E40011F50DF50E803DE509B4011783
:1000F0001201D8E4FE7F64120198E4F51075110135
:10010000750F01F5098021E50FB4011CE510B4005D
:0901100006E511B42701D3500FDC
:10011900E4FE7F641201980511E51170020510E5EE
:080129000A450B6003020020EF
:05013100C2A0309105A1
:0B013600C2A102002030910302002053
:05014100D2A102002024
:0B014600758000C2A0C2A175801422C9
:100151008E168F17851618851719E51845196036FB
:10016100751A01751BE6E51A451B6020E4F51C753F
:100171001DFFE51C451D600AE51D151D70F4151CCC
:1001810080F0E51B151B70DE151A80DAE5191519CB
:0701910070C8151880C4229C
:100198008E128F13E51245136020E4F5147515C807
:1001A800E5144515600AE515151570F4151480F069
:0B01B800E513151370DE151280DA222B
:0401C30075800A2217
:0801C700758009C2A13090030C
:0601CF00C2A022209002F4
:0301D500D2A02293
:0401D80075800B2201
:0401DC0075801422F4
:00000001FF
