:030000000202EA0F
:10000300CD30E11520E00FC083C08288828C83CD80
:0C001300F0D082D08322CDF222CDF62264
:10001F00CB30E11520E00FC083C08289828A83CB69
:0C002F00F0D082D08322CBF322CBF7224A
:10003B00ED30E11320E00EC083C08288828C83E018
:10004B00D082D08322E2226405700EC083C08288E6
:0B005B00828C8393D082D08322E622A7
:10006600EB30E11320E00EC083C08289828A83E0F0
:10007600D082D08322E3226405700EC083C08289B9
:0B008600828A8393D082D08322E7227D
:0400910011030199BD
:040095001166019F50
:0600990008B800010C2272
:06009F0009B900010A226C
:1000A500BD020B12014FFDA3E0FCA3E0F8224003C3
:1000B500BD040D120137FDA88308E6FC08E6F82209
:1000C500400D12011DFDA3E493FCA3E493F8221255
:0C00D5000167FDA88308E2FC08E2F822A5
:1000E100BB020B12015BFBA3E0FAA3E0F922400380
:1000F100BB040D120143FBA98309E7FA09E7F922C1
:10010100400D12012AFBA3E493FAA3E493F922120E
:0C0111000173FBA98309E3FA09E3F9225A
:0D011D00E82582F582EC3583F583E493221A
:0D012A00E92582F582EA3583F583E493220E
:0C0137008983E82582F9E7C9C583C92245
:0C0143008883E92582F8E6C8C583C8223D
:0C014F00E82582F582EC3583F583E02280
:0C015B00E92582F582EA3583F583E02275
:0C0167008983E82582F9E3C9C583C92219
:0C0173008883E92582F8E2C8C583C82211
:10017F00D2D57F018002C2D5ED70030202E554078C
:10018F002323F58289F0EAFDEB70012254034582A7
:10019F00239001E973E608F70920D50470F7803F33
:1001AF00DEF3DFF1803989828D83E608F0A320D555
:1001BF000470F7802ADEF3DFF18024E608F30920CC
:1001CF00D50470F78019DEF3DFF1801388828C83FA
:1001DF00E0A3F70920D50470F78004DEF3DFF10206
:1001EF0002E280B180AF80BE80D180E080DE80519E
:1001FF00806B80168014803480218099809780A630
:10020F0080B980438041803C8068E208F70920D59F
:10021F000470F780CADEF3DFF180C4E208F309202F
:10022F00D50470F780B9DEF3DFF180B389828D8357
:10023F00E208F0A320D50470F780A4DEF3DFF1808D
:10024F009E0202BD02029788828C83E493A3F70972
:10025F0020D50470F68088DEF2DFF080F888828C7B
:10026F0083E0A3F30920D50470F780E9DEF3DFF113
:10027F0080E388828C83E493A3F30920D50470F67E
:10028F0080D3DEF2DFF080CD88828C83E493A3C924
:10029F00C582C9CDC583CDF0A3C9C582C9CDC583DC
:1002AF00CD20D50470E680ADDEE2DFE080A7888246
:1002BF008C83E0A3C9C582C9CDC583CDF0A3C9C5C1
:1002CF0082C9CDC583CD20D50470E780DFDEE3DFA3
:0302DF00E180D9E2
:0802E200A9F022E4FBFAF92265
:0F02EA0075811CE4787FF6D8FD75A0FF0202FC39
:0302F90000000002
:1002FC00740C2581F581750805750902750AF97567
:10030C00800075900075A000E4FE7F027B01FA79F5
:10031C000874F52581F81207E37A007B0174F52542
:10032C0081F8EBFD14FCAB08AA09A90A7E0C12019A
:10033C007F1206987B017908E4FA74F52581F8128E
:10034C0005CB7A007B0174F52581F8EBFD14FCAB31
:10035C0008AA09A90A7E0C12017FC2B3C2B4C2B5A5
:10036C00C2B6E4FEFA7F027B01790874F52581F8A8
:10037C001207E37A007B0174F52581F8EBFD14FC80
:0B038C00AB08AA09A90A7E0C12017F31
:10039700050BE4FE7F017B017908FA74F52581F8E6
:1003A7001207E37A007B0174F52581F8EBFD14FC55
:1003B700AB08AA09A90A7E0C12017FAF0B1206A48B
:1003C700E4FEFA7F017B01790874F52581F81207AD
:1003D700E37A007B0174F52581F8EBFD14FCAB088B
:1003E700AA09A90A7E0C12017FAF0B1206CDE4FE03
:1003F700FA7F017B01790874F52581F81207E37A02
:10040700007B0174F52581F8EBFD14FCAB08AA0904
:10041700A90A7E0C12017FAF0B120716E4FEFA7FC2
:10042700017B01790874F52581F81207E37A007BCF
:100437000174F52581F8EBFD14FCAB08AA09A90A9C
:100447007E0C12017F120793E4FEFA7F017B01798C
:100457000874F52581F81207E37A007B0174F52506
:1004670081F8EBFD14FCAB08AA09A90A7E0C12015E
:100477007FE50BB40119AB08AA09A90A120095FD7B
:10048700120095FC120066F812003B64016051E50A
:100497000BB40213AD08AC09A80A9000031200A51B
:1004A70012003B64016039E50BB40313AD08AC09D6
:1004B700A80A9000061200A512003B64016021E51E
:1004C7000BB4040280030205A7AD08AC09A80A9083
:1004D70000091200A512003BB4010280030205A720
:1004E700AF0B7D0112074FE4FEFA7F017B0179080C
:1004F70074F52581F81207E37A007B0174F52581ED
:10050700F8EBFD14FCAB08AA09A90A7E0C12017FBF
:10051700AF0BE4FD12074FE4FEFA7F017B01790878
:1005270074F52581F81207E37A007B0174F52581BC
:10053700F8EBFD14FCAB08AA09A90A7E0C12017F8F
:10054700E50BB40118AB08AA09A90A120095FD1218
:100557000095FC120066F8E41200038043E50BB433
:100567000212AB08AA09A90A9000031200E1E412DB
:10057700001F802CE50BB40312AB08AA09A90A9047
:1005870000061200E1E412001F8015E50BB4041009
:10059700AB08AA09A90A9000091200E1E412001F9A
:0805A700E50BB4040920B706BE
:1005AF00E4F50B020397E50BB404028003020397F3
:0605BF0020B703020397C0
:0605C500750B0102039713
:1005CB00C0008B198A1A891B30B01A20B117AB19CE
:1005DB00AA1AA91B120095FD120095FC120066F8D1
:1005EB00740112000330B11420B011AB19AA1AA96F
:1005FB001B9000031200E1740112001F30B211AB0B
:10060B0019AA1AA91B9000061200E1740112001F0F
:10061B0030B01430B111AB19AA1AA91B90000912F2
:10062B0000E1740112001FAB19AA1AE51B240BF988
:10063B0050010A7C007D01A881E6F8E924F5F94018
:10064B00011A1200951200911200951200911200DE
:10065B0095120091120095120091120095120091C3
:10066B001200951200911200951200911200951232
:10067B000091120095120091120095120091120038
:0D068B0095120091120066120003158122E5
:0C0698007580FFC2B3C2B4C2B5C2B62266
:1006A4008F0CEF1460151460171460051460078034
:0106B4001431
:1006B500D292D29322D294D29522D296D29722D296
:0806C50090D2912202079A2253
:1006CD008F0CEF14602514602F14600514600F80DB
:0106DD0034E8
:1006DE00C282C283C292C293D2A2D2A322C284C2C7
:1006EE0085C294C295D2A4D2A522C286C287C296D2
:1006FE00C297D2A6D2A722C280C281C290C291D284
:08070E00A0D2A12202079A22E9
:100716008F0CEF14601D14602314600514600B80A9
:0107260024AE
:10072700C2A2C2A3D292D29322C2A4C2A5D294D209
:100737009522C2A6C2A7D296D29722C2A0C2A1D2A0
:0807470090D2912202079A22D0
:10074F008F0C8D0DE50C14602114602914600514B5
:04075F00600D802C7D
:10076300E50DB40103D2B422C2B422E50DB40103F2
:10077300D2B522C2B522E50DB40103D2B622C2B668
:1007830022E50DB40103D2B322C2B32202079A2297
:070793007580FF7590002244
:06079A00740C2581F581BD
:1007A00075800075900075A000E4FE7F01FBFAF9EA
:1007B00074F52581F81207E37A007B0174F5258131
:1007C000F97580FF7590FF75A0FFE4F9FEFB7F01CE
:1007D00074F52581F81207E37A007B0174F5258111
:0307E000F980BDE0
:1007E300740C2581F581C0008E0E8F0F8B108A113A
:1007F3008912850E13850F14E5134514604D751585
:0A080300017516E7E515451660378C
:10080D00E4F5177518FFE5174518600AE518151872
:10081D0070F4151780F07B01E4FA791074F42581DA
:10082D00F81205CB7A007B0174F42581F9E51615D4
:10083D001670C7151580C3E514151470B115138006
:10084D00ADAB10AA11E512240BF950010A7C007D05
:10085D0001A881E6F8E924F5F940011A1200951274
:10086D000091120095120091120095120091120044
:10087D00951200911200951200911200951200919F
:10088D00120095120091120095120091120095120E
:10089D000091120095120091120095120091120014
:0B08AD006612000374F32581F5812220
:00000001FF
