:030000000200E714
:10000300CD30E11520E00FC083C08288828C83CD80
:0C001300F0D082D08322CDF222CDF62264
:10001F00CB30E11520E00FC083C08289828A83CB69
:0C002F00F0D082D08322CBF322CBF7224A
:10003B00EB30E11320E00EC083C08289828A83E01B
:10004B00D082D08322E3226405700EC083C08289E4
:0B005B00828A8393D082D08322E722A8
:040066001103016E13
:04006A00113B0174D1
:06006E0008B800010C229D
:0600740009B900010A2297
:10007A00BB020B1200CFFBA3E0FAA3E0F922400374
:10008A00BB040D1200C3FBA98309E7FA09E7F922A9
:10009A00400D1200B6FBA3E493FAA3E493F92212EB
:0C00AA0000DBFBA98309E3FA09E3F9225B
:0D00B600E92582F582EA3583F583E4932283
:0C00C3008883E92582F8E6C8C583C822BE
:0C00CF00E92582F582EA3583F583E02202
:0C00DB008883E92582F8E2C8C583C822AA
:0F00E70075811CE4787FF6D8FD75A0FF0200F943
:0300F60000000007
:1000F900740C2581F581750805750900750AF67571
:10010900800075900075A000E4FE7F027B01FA79FA
:100119000874F52581F81204AA7A007B0174F52583
:1001290081F912035F7B017908E4FA74F52581F8F6
:100139001202927A007B0174F52581F9C2B3C2B427
:10014900C2B5C2B6E4FE7F02790874F52581F812BA
:0D01590004AA7A007B0174F52581F9C2B774
:10016600AB08AA09A90A12006AFD12006AFC12006D
:100176003BF87401120003AB08AA09A90A90000310
:1001860012007A740112001FAB08AA09A90A90008E
:100196000612007A740112001FAB08AA09A90A9078
:1001A600000912007A740112001F050BE4FAFE7FA3
:1001B600017B01790874F52581F81204AA7A007B7F
:1001C6000174F52581F9AF0B12036BE4FEFA7F018A
:1001D6007B01790874F52581F81204AA7A007B015F
:1001E60074F52581F9AF0B120394E4FEFA7F017BC7
:1001F60001790874F52581F81204AA7A007B017446
:10020600F52581F9AF0B1203DDE4FEFA7F017B01D0
:10021600790874F52581F81204AA7A007B0174F531
:100226002581F912045AE4FEFA7F017B01790874EC
:10023600F52581F81204AA7A007B0174F52581F967
:10024600AF0B7D01120416E4FEFA7F017B017908EB
:1002560074F52581F81204AA7A007B0174F52581CC
:10026600F9AF0BE4FD120416E50BB4040920B7063A
:10027600E4F50B020166E50BB40402800302016695
:0602860020B7030201662F
:06028C00750B0102016682
:10029200C0008B198A1A891B30B01A20B117AB190A
:1002A200AA1AA91B12006AFD12006AFC12003BF88E
:1002B200740112000330B11420B011AB19AA1AA9AB
:1002C2001B90000312007A740112001F30B211ABAE
:1002D20019AA1AA91B90000612007A740112001FB3
:1002E20030B01430B111AB19AA1AA91B900009122F
:1002F200007A740112001FAB19AA1AE51B240BF92C
:1003020050010A7C007D01A881E6F8E924F5F94054
:10031200011A12006A12006612006A1200661200C6
:100322006A12006612006A12006612006A12006601
:1003320012006A12006612006A12006612006A1245
:10034200006612006A12006612006A12006612004B
:0D0352006A12006612003B120003158122A2
:0C035F007580FFD2B3D2B4D2B5D2B62262
:10036B008F0CEF1460151460171460051460078070
:01037B00146D
:10037C00D292D29322D294D29522D296D29722D2D2
:08038C0090D2912202046122CB
:100394008F0CEF14602514602F14600514600F8017
:0103A4003424
:1003A500C282C283C292C293D2A2D2A322C284C203
:1003B50085C294C295D2A4D2A522C286C287C2960E
:1003C500C297D2A6D2A722C280C281C290C291D2C0
:0803D500A0D2A1220204612262
:1003DD008F0CEF14601D14602314600514600B80E6
:0103ED0024EB
:1003EE00C2A2C2A3D292D29322C2A4C2A5D294D246
:1003FE009522C2A6C2A7D296D29722C2A0C2A1D2DD
:08040E0090D291220204612248
:100416008F0C8D0DE50C14602114602914600514F1
:04042600600D802CB9
:10042A00E50DB40103D2B422C2B422E50DB401032E
:10043A00D2B522C2B522E50DB40103D2B622C2B6A4
:10044A0022E50DB40103D2B322C2B322020461220F
:07045A007580FF7590002280
:06046100740C2581F581F9
:1004670075800075900075A000E4FE7F01FBFAF926
:1004770074F52581F81204AA7A007B0174F52581A9
:10048700F97580FF7590FF75A0FFE4F9FEFB7F010A
:1004970074F52581F81204AA7A007B0174F5258189
:0304A700F980BD1C
:1004AA00740C2581F581C0008E0E8F0F8B108A1176
:1004BA008912850E13850F14E5134514604D7515C1
:0A04CA00017516E7E51545166037C9
:1004D400E4F5177518FFE5174518600AE5181518AF
:1004E40070F4151780F07B01E4FA791074F4258117
:1004F400F81202927A007B0174F42581F9E516154D
:100504001670C7151580C3E514151470B115138042
:10051400ADAB10AA11E512240BF950010A7C007D41
:1005240001A881E6F8E924F5F940011A12006A12DB
:10053400006612006A12006612006A120066120057
:100544006A12006612006A12006612006A120066DD
:1005540012006A12006612006A12006612006A1221
:10056400006612006A12006612006A120066120027
:0B0574003B12000374F32581F5812287
:00000001FF
