:03000000020003F8
:0F000300758112E4787FF6D8FD75A0FF02001218
:1000120075800075900075A000C2B3C2B4C2B5C2AB
:04002200B6120070A2
:100026000508AF0812007CE4FE7F0112014DAF08FF
:100036001200A5E4FE7F0112014DAF081200EEE4A6
:10004600FE7F0112014D120127E4FE7F0112014DD0
:08005600E508B4040820B70519
:0D005E00E4F50880C3E508B404BE30B7BB6C
:05006B0075080180B6DC
:0C0070007580FFD2B3D2B4D2B5D2B62254
:10007C008F09EF14601A14600814600A14600C8065
:01008C00145F
:10008D00D292D29322D294D29522D296D29722D2C4
:08009D0090D2912202012B22F6
:1000A5008F09EF14603214600814601214601C800C
:0100B5003416
:1000B600C282C283C292C293D2A2D2A322C284C2F5
:1000C60085C294C295D2A4D2A522C286C287C29600
:1000D600C297D2A6D2A722C280C281C290C291D2B2
:0800E600A0D2A12202012B228D
:1000EE008F09EF14602614600814600E14601480DB
:0100FE0024DD
:1000FF00C2A2C2A3D292D29322C2A4C2A5D294D238
:10010F009522C2A6C2A7D296D29722C2A0C2A1D2CE
:08011F0090D2912202012B2273
:040127007580FF22BE
:10012B0075800075900075A000E4FE7F0112014DF3
:10013B007580FF7590FF75A0FFE4FE7F0112014DE6
:02014B0080DE54
:10014D008E0A8F0B850A0C850B0DE50C450D60365F
:10015D00750E01750FE7E50E450F6020E4F510757E
:10016D0011FFE5104511600AE511151170F4151018
:10017D0080F0E50F150F70DE150E80DAE50D150D0B
:07018D0070C8150C80C422AC
:00000001FF
