:0300000002017F7B
:10000300CD30E11520E00FC083C08288828C83CD80
:0C001300F0D082D08322CDF222CDF62264
:10001F00CB30E11520E00FC083C08289828A83CB69
:0C002F00F0D082D08322CBF322CBF7224A
:10003B00ED30E11320E00EC083C08288828C83E018
:10004B00D082D08322E2226405700EC083C08288E6
:0B005B00828C8393D082D08322E622A7
:10006600EB30E11320E00EC083C08289828A83E0F0
:10007600D082D08322E3226405700EC083C08289B9
:0B008600828A8393D082D08322E7227D
:0400910011030199BD
:040095001166019F50
:0600990008B800010C2272
:06009F0009B900010A226C
:1000A500BD020B12014FFDA3E0FCA3E0F8224003C3
:1000B500BD040D120137FDA88308E6FC08E6F82209
:1000C500400D12011DFDA3E493FCA3E493F8221255
:0C00D5000167FDA88308E2FC08E2F822A5
:1000E100BB020B12015BFBA3E0FAA3E0F922400380
:1000F100BB040D120143FBA98309E7FA09E7F922C1
:10010100400D12012AFBA3E493FAA3E493F922120E
:0C0111000173FBA98309E3FA09E3F9225A
:0D011D00E82582F582EC3583F583E493221A
:0D012A00E92582F582EA3583F583E493220E
:0C0137008983E82582F9E7C9C583C92245
:0C0143008883E92582F8E6C8C583C8223D
:0C014F00E82582F582EC3583F583E02280
:0C015B00E92582F582EA3583F583E02275
:0C0167008983E82582F9E3C9C583C92219
:0C0173008883E92582F8E2C8C583C82211
:0F017F0075811CE4787FF6D8FD75A0FF02019111
:03018E000000006E
:10019100740C2581F581750805750901750A8E753F
:1001A100800075900075A000C2B3C2B4C2B5C2B6DA
:1001B100E4FE7F027B01FA790874F52581F81205C6
:1001C100417A007B0174F52581F91203F67B0179EF
:1001D10008E4FA74F52581F81203297A007B017489
:1001E100F52581F9E4FE7F02790874F52581F8127D
:0B01F10005417A007B0174F52581F9BF
:1001FC00050BAF0B120402E4FE7F017B017908FAB8
:10020C0074F52581F81205417A007B0174F525817E
:10021C00F9AF0B12042BE4FEFA7F017B0179087411
:10022C00F52581F81205417A007B0174F52581F9D9
:10023C00AF0B120474E4FEFA7F017B01790874F5AC
:10024C002581F81205417A007B0174F52581F9129C
:10025C0004F1E4FEFA7F017B01790874F52581F83D
:10026C001205417A007B0174F52581F9E50BB40187
:10027C0019AB08AA09A90A120095FD120095FC12E7
:10028C000066F812003B64016047E50BB40213AD45
:10029C0008AC09A80A9000031200A512003B6401E7
:1002AC00602FE50BB40313AD08AC09A80A90000647
:1002BC001200A512003B64016017E50BB4043AADC3
:1002CC0008AC09A80A9000091200A512003BB40161
:0102DC0028F9
:1002DD00AF0B7D011204ADE4FEFA7F017B017908BD
:1002ED0074F52581F81205417A007B0174F525819D
:1002FD00F9AF0BE4FD1204ADE50BB4040920B7060C
:10030D00E4F50B0201FCE50BB4040280030201FCD1
:06031D0020B7030201FC01
:06032300750B010201FC54
:10032900C0008B198A1A891B30B01A20B117AB1972
:10033900AA1AA91B120095FD120095FC120066F875
:10034900740112000330B11420B011AB19AA1AA913
:100359001B9000031200E1740112001F30B211ABAF
:1003690019AA1AA91B9000061200E1740112001FB4
:1003790030B01430B111AB19AA1AA91B9000091297
:1003890000E1740112001FAB19AA1AE51B240BF92D
:1003990050010A7C007D01A881E6F8E924F5F940BD
:1003A900011A120095120091120095120091120083
:1003B9009512009112009512009112009512009168
:1003C90012009512009112009512009112009512D7
:1003D90000911200951200911200951200911200DD
:0D03E900951200911200661200031581228A
:0C03F6007580FFD2B3D2B4D2B5D2B622CB
:100402008F0CEF14601A14600814600A14600C80D8
:0104120014D5
:10041300D292D29322D294D29522D296D29722D23A
:0804230090D291220204F8229C
:10042B008F0CEF14603214600814601214601C807F
:01043B00348C
:10043C00C282C283C292C293D2A2D2A322C284C26B
:10044C0085C294C295D2A4D2A522C286C287C29676
:10045C00C297D2A6D2A722C280C281C290C291D228
:08046C00A0D2A1220204F82233
:100474008F0CEF14602614600814600E146014804E
:010484002453
:10048500C2A2C2A3D292D29322C2A4C2A5D294D2AE
:100495009522C2A6C2A7D296D29722C2A0C2A1D245
:0804A50090D291220204F8221A
:1004AD008F0C8D0DE50C14602C1460081460101465
:0404BD006018802C17
:1004C100E50DB40103D2B422C2B422E50DB4010397
:1004D100D2B522C2B522E50DB40103D2B622C2B60D
:1004E10022E50DB40103D2B322C2B3220204F822E1
:0704F1007580FF75900022E9
:0604F800740C2581F58162
:1004FE0075800075900075A000E4FE7F01FBFAF98F
:10050E0074F52581F81205417A007B0174F5258179
:10051E00F97580FF7590FF75A0FFE4F9FEFB7F0172
:10052E0074F52581F81205417A007B0174F5258159
:03053E00F980BD84
:10054100740C2581F581C0008E0E8F0F8B108A11DE
:100551008912850E13850F14E5134514604D751529
:0A056100017516E7E5154516603731
:10056B00E4F5177518FFE5174518600AE518151817
:10057B0070F4151780F07B01E4FA791074F425817F
:10058B00F81203297A007B0174F42581F9E516151D
:10059B001670C7151580C3E514151470B1151380AB
:1005AB00ADAB10AA11E512240BF950010A7C007DAA
:1005BB0001A881E6F8E924F5F940011A1200951219
:1005CB0000911200951200911200951200911200E9
:1005DB009512009112009512009112009512009144
:1005EB0012009512009112009512009112009512B3
:1005FB0000911200951200911200951200911200B9
:0B060B006612000374F32581F58122C4
:00000001FF
