:030000000200E714
:10000300CD30E11520E00FC083C08288828C83CD80
:0C001300F0D082D08322CDF222CDF62264
:10001F00CB30E11520E00FC083C08289828A83CB69
:0C002F00F0D082D08322CBF322CBF7224A
:10003B00EB30E11320E00EC083C08289828A83E01B
:10004B00D082D08322E3226405700EC083C08289E4
:0B005B00828A8393D082D08322E722A8
:040066001103016E13
:04006A00113B0174D1
:06006E0008B800010C229D
:0600740009B900010A2297
:10007A00BB020B1200CFFBA3E0FAA3E0F922400374
:10008A00BB040D1200C3FBA98309E7FA09E7F922A9
:10009A00400D1200B6FBA3E493FAA3E493F92212EB
:0C00AA0000DBFBA98309E3FA09E3F9225B
:0D00B600E92582F582EA3583F583E4932283
:0C00C3008883E92582F8E6C8C583C822BE
:0C00CF00E92582F582EA3583F583E02202
:0C00DB008883E92582F8E2C8C583C822AA
:0F00E70075811BE4787FF6D8FD75A0FF0200F944
:0300F60000000007
:1000F900740C2581F581750805750900750AF67571
:10010900800075900075A000C2B3C2B4C2B5C2B672
:10011900E4FE7F027B01FA790874F52581F8120360
:10012900D87A007B0174F52581F91202D17B017916
:1001390008E4FA74F52581F81202047A007B017447
:10014900F52581F9E4FE7F02790874F52581F81215
:0B01590003D87A007B0174F52581F9C2
:10016400050BAF0B1202DDE4FE7F017B017908FA77
:1001740074F52581F81203D87A007B0174F5258182
:10018400F9AF0B120306E4FEFA7F017B01790874D0
:10019400F52581F81203D87A007B0174F52581F9DD
:1001A400AF0B12034FE4FEFA7F017B01790874F56B
:1001B4002581F81203D87A007B0174F52581F912A0
:1001C4000388E4FEFA7F017B01790874F52581F840
:1001D4001203D87A007B0174F52581F9E50BB40488
:0401E4000920B70631
:1001E800E4F50B020164E50BB40402800302016428
:0601F80020B703020164C0
:0601FE00750B0102016413
:10020400C0008B188A19891A30B01A20B117AB189C
:10021400AA19A91A12006AFD12006AFC12003BF81E
:10022400740112000330B11420B011AB18AA19A93B
:100234001A90000312007A740112001F30B211AB3D
:1002440018AA19A91A90000612007A740112001F44
:1002540030B01430B111AB18AA19A91A90000912C0
:10026400007A740112001FAB18AA19E51A240BF9BD
:1002740050010A7C007D01A881E6F8E924F5F940E3
:10028400011A12006A12006612006A120066120055
:100294006A12006612006A12006612006A12006690
:1002A40012006A12006612006A12006612006A12D4
:1002B400006612006A12006612006A1200661200DA
:0D02C4006A12006612003B12000315812231
:0C02D1007580FFD2B3D2B4D2B5D2B622F1
:1002DD008F0CEF14601A14600814600A14600C80FF
:0102ED0014FC
:1002EE00D292D29322D294D29522D296D29722D261
:0802FE0090D2912202038F222D
:100306008F0CEF14603214600814601214601C80A5
:0103160034B2
:10031700C282C283C292C293D2A2D2A322C284C291
:1003270085C294C295D2A4D2A522C286C287C2969C
:10033700C297D2A6D2A722C280C281C290C291D24E
:08034700A0D2A12202038F22C3
:10034F008F0CEF14602614600814600E1460148074
:01035F002479
:10036000C2A2C2A3D292D29322C2A4C2A5D294D2D4
:100370009522C2A6C2A7D296D29722C2A0C2A1D26B
:0803800090D2912202038F22AA
:070388007580FF7590002253
:06038F00740C2581F581CC
:1003950075800075900075A000E4FE7F01FBFAF9F9
:1003A50074F52581F81203D87A007B0174F525814F
:1003B500F97580FF7590FF75A0FFE4F9FEFB7F01DD
:1003C50074F52581F81203D87A007B0174F525812F
:0303D500F980BDEF
:1003D800740C2581F581C0008E0D8F0E8B0F8A104D
:1003E8008911850D12850E13E5124513604D75149C
:0A03F800017515E7E514451560379F
:10040200E4F5167517FFE5164517600AE517151787
:1004120070F4151680F07B01E4FA790F74F42581EB
:10042200F81202047A007B0174F42581F9E51515AE
:100432001570C7151480C3E513151370B11512801A
:10044200ADAB0FAA10E511240BF950010A7C007D17
:1004520001A881E6F8E924F5F940011A12006A12AE
:10046200006612006A12006612006A12006612002A
:100472006A12006612006A12006612006A120066B0
:1004820012006A12006612006A12006612006A12F4
:10049200006612006A12006612006A1200661200FA
:0B04A2003B12000374F32581F581225A
:00000001FF
