:0300000002017F7B
:10000300CD30E11520E00FC083C08288828C83CD80
:0C001300F0D082D08322CDF222CDF62264
:10001F00CB30E11520E00FC083C08289828A83CB69
:0C002F00F0D082D08322CBF322CBF7224A
:10003B00ED30E11320E00EC083C08288828C83E018
:10004B00D082D08322E2226405700EC083C08288E6
:0B005B00828C8393D082D08322E622A7
:10006600EB30E11320E00EC083C08289828A83E0F0
:10007600D082D08322E3226405700EC083C08289B9
:0B008600828A8393D082D08322E7227D
:0400910011030199BD
:040095001166019F50
:0600990008B800010C2272
:06009F0009B900010A226C
:1000A500BD020B12014FFDA3E0FCA3E0F8224003C3
:1000B500BD040D120137FDA88308E6FC08E6F82209
:1000C500400D12011DFDA3E493FCA3E493F8221255
:0C00D5000167FDA88308E2FC08E2F822A5
:1000E100BB020B12015BFBA3E0FAA3E0F922400380
:1000F100BB040D120143FBA98309E7FA09E7F922C1
:10010100400D12012AFBA3E493FAA3E493F922120E
:0C0111000173FBA98309E3FA09E3F9225A
:0D011D00E82582F582EC3583F583E493221A
:0D012A00E92582F582EA3583F583E493220E
:0C0137008983E82582F9E7C9C583C92245
:0C0143008883E92582F8E6C8C583C8223D
:0C014F00E82582F582EC3583F583E02280
:0C015B00E92582F582EA3583F583E02275
:0C0167008983E82582F9E3C9C583C92219
:0C0173008883E92582F8E2C8C583C82211
:0F017F0075811CE4787FF6D8FD75A0FF02019111
:03018E000000006E
:10019100740C2581F581750805750901750A8E753F
:1001A100800075900075A000E4FE7F027B01FA7962
:1001B1000874F52581F81205C57A007B0174F525CF
:1001C10081F912047A7B017908E4FA74F52581F842
:1001D1001203AD7A007B0174F52581F9C2B3C2B473
:1001E100C2B5C2B6E4FE7F02790874F52581F81222
:0B01F10005C57A007B0174F52581F93B
:1001FC00050BE4FE7F017B017908FA74F52581F883
:10020C001205C57A007B0174F52581F9AF0B120438
:10021C0086E4FEFA7F017B01790874F52581F812DA
:10022C0005C57A007B0174F52581F9AF0B1204AF7B
:10023C00E4FEFA7F017B01790874F52581F812053B
:10024C00C57A007B0174F52581F9AF0B1204F8E433
:10025C00FEFA7F017B01790874F52581F81205C53A
:10026C007A007B0174F52581F9120575E4FEFA7F9D
:10027C00017B01790874F52581F81205C57A007B9C
:10028C000174F52581F9E50BB40119AB08AA09A98C
:10029C000A120095FD120095FC120066F812003B44
:1002AC0064016051E50BB40213AD08AC09A80A90C7
:1002BC0000031200A512003B64016039E50BB40386
:1002CC0013AD08AC09A80A9000061200A512003B59
:1002DC0064016021E50BB404028003020389AD08BC
:1002EC00AC09A80A9000091200A512003BB4010247
:0502FC008003020389EC
:10030100AF0B7D01120531E4FEFA7F017B01790813
:1003110074F52581F81205C57A007B0174F52581F4
:10032100F9AF0BE4FD120531E50BB40118AB08AAD6
:1003310009A90A120095FD120095FC120066F8E465
:100341001200038043E50BB40212AB08AA09A90A03
:100351009000031200E1E412001F802CE50BB403AE
:1003610012AB08AA09A90A9000061200E1E41200E2
:100371001F8015E50BB40410AB08AA09A90A900067
:10038100091200E1E412001FE50BB4040920B706CD
:10039100E4F50B0201FCE50BB4040280030201FC4D
:0603A10020B7030201FC7D
:0603A700750B010201FCD0
:1003AD00C0008B198A1A891B30B01A20B117AB19EE
:1003BD00AA1AA91B120095FD120095FC120066F8F1
:1003CD00740112000330B11420B011AB19AA1AA98F
:1003DD001B9000031200E1740112001F30B211AB2B
:1003ED0019AA1AA91B9000061200E1740112001F30
:1003FD0030B01430B111AB19AA1AA91B9000091213
:10040D0000E1740112001FAB19AA1AE51B240BF9A8
:10041D0050010A7C007D01A881E6F8E924F5F94038
:10042D00011A1200951200911200951200911200FE
:10043D0095120091120095120091120095120091E3
:10044D001200951200911200951200911200951252
:10045D000091120095120091120095120091120058
:0D046D009512009112006612000315812205
:0C047A007580FFC2B3C2B4C2B5C2B62286
:100486008F0CEF1460151460171460051460078054
:010496001451
:10049700D292D29322D294D29522D296D29722D2B6
:0804A70090D2912202057C2293
:1004AF008F0CEF14602514602F14600514600F80FB
:0104BF003408
:1004C000C282C283C292C293D2A2D2A322C284C2E7
:1004D00085C294C295D2A4D2A522C286C287C296F2
:1004E000C297D2A6D2A722C280C281C290C291D2A4
:0804F000A0D2A12202057C222A
:1004F8008F0CEF14601D14602314600514600B80CA
:0105080024CE
:10050900C2A2C2A3D292D29322C2A4C2A5D294D229
:100519009522C2A6C2A7D296D29722C2A0C2A1D2C0
:0805290090D2912202057C2210
:100531008F0C8D0DE50C14602114602914600514D5
:04054100600D802C9D
:10054500E50DB40103D2B422C2B422E50DB4010312
:10055500D2B522C2B522E50DB40103D2B622C2B688
:1005650022E50DB40103D2B322C2B32202057C22D7
:070575007580FF7590002264
:06057C00740C2581F581DD
:1005820075800075900075A000E4FE7F01FBFAF90A
:1005920074F52581F81205C57A007B0174F5258171
:1005A200F97580FF7590FF75A0FFE4F9FEFB7F01EE
:1005B20074F52581F81205C57A007B0174F5258151
:0305C200F980BD00
:1005C500740C2581F581C0008E0E8F0F8B108A115A
:1005D5008912850E13850F14E5134514604D7515A5
:0A05E500017516E7E51545166037AD
:1005EF00E4F5177518FFE5174518600AE518151893
:1005FF0070F4151780F07B01E4FA791074F42581FB
:10060F00F81203AD7A007B0174F42581F9E5161514
:10061F001670C7151580C3E514151470B115138026
:10062F00ADAB10AA11E512240BF950010A7C007D25
:10063F0001A881E6F8E924F5F940011A1200951294
:10064F000091120095120091120095120091120064
:10065F0095120091120095120091120095120091BF
:10066F00120095120091120095120091120095122E
:10067F000091120095120091120095120091120034
:0B068F006612000374F32581F5812240
:00000001FF
