:030000000200E714
:10000300CD30E11520E00FC083C08288828C83CD80
:0C001300F0D082D08322CDF222CDF62264
:10001F00CB30E11520E00FC083C08289828A83CB69
:0C002F00F0D082D08322CBF322CBF7224A
:10003B00EB30E11320E00EC083C08289828A83E01B
:10004B00D082D08322E3226405700EC083C08289E4
:0B005B00828A8393D082D08322E722A8
:040066001103016E13
:04006A00113B0174D1
:06006E0008B800010C229D
:0600740009B900010A2297
:10007A00BB020B1200CFFBA3E0FAA3E0F922400374
:10008A00BB040D1200C3FBA98309E7FA09E7F922A9
:10009A00400D1200B6FBA3E493FAA3E493F92212EB
:0C00AA0000DBFBA98309E3FA09E3F9225B
:0D00B600E92582F582EA3583F583E4932283
:0C00C3008883E92582F8E6C8C583C822BE
:0C00CF00E92582F582EA3583F583E02202
:0C00DB008883E92582F8E2C8C583C822AA
:0F00E70075811BE4787FF6D8FD75A0FF0200F944
:0300F60000000007
:1000F900740C2581F581750805750900750AF67571
:10010900800075900075A000C2B3C2B4C2B5C2B672
:100119001202527B017908E4FA74F52581F812017B
:0A012900917A007B0174F52581F93D
:10013300050BAF0B12025EE4FE7F017B017908FA27
:10014300120335AF0B120287E4FEFA7F017B0179BC
:1001530008120335AF0B1202D0E4FEFA7F017B01D4
:100163007908120335120309E4FEFA7F017B017952
:0C01730008120335E50BB4040820B705A2
:0D017F00E4F50B80AFE50BB404AA30B7A780
:05018C00750B0180A2CB
:10019100C0008B188A19891A30B01112006AFD1239
:1001A100006AFC12003BF8740112000330B111AB7C
:1001B10018AA19A91A90000312007A740112001FDB
:1001C10030B211AB18AA19A91A90000612007A745C
:1001D1000112001F30B01430B111AB18AA19A91ABD
:1001E10090000912007A740112001FAB18AA19E5D8
:1001F1001A240BF950010A7C007D01A881E6F8E977
:1002010024F5F940011A12006A12006612006A12FE
:10021100006612006A12006612006A12006612007D
:100221006A12006612006A12006612006A12006603
:1002310012006A12006612006A12006612006A1247
:10024100006612006A12006612003B12000315815B
:01025100228A
:0C0252007580FFD2B3D2B4D2B5D2B62270
:10025E008F0CEF14601A14600814600A14600C807E
:01026E00147B
:10026F00D292D29322D294D29522D296D29722D2E0
:08027F0090D2912202030D222E
:100287008F0CEF14603214600814601214601C8025
:010297003432
:10029800C282C283C292C293D2A2D2A322C284C211
:1002A80085C294C295D2A4D2A522C286C287C2961C
:1002B800C297D2A6D2A722C280C281C290C291D2CE
:0802C800A0D2A12202030D22C5
:1002D0008F0CEF14602614600814600E14601480F4
:0102E00024F9
:1002E100C2A2C2A3D292D29322C2A4C2A5D294D254
:1002F1009522C2A6C2A7D296D29722C2A0C2A1D2EB
:0803010090D2912202030D22AB
:040309007580FF22DA
:10030D0075800075900075A000E4FE7F01FBFAF981
:10031D001203357580FF7590FF75A0FFE4F9FAFEA5
:08032D00FB7F0112033580D8AB
:10033500740C2581F5818E0D8F0E8B0F8A10891116
:10034500850D12850E13E5124513604D7514017563
:0803550015E7E51445156037BA
:10035D00E4F5167517FFE5164517600AE51715172D
:10036D0070F4151680F07B01E4FA790F74F5258190
:10037D00F81201917A007B0174F52581F9E51515C7
:10038D001570C7151480C3E513151370B1151280C0
:08039D00AD74F42581F5812205
:00000001FF
