:03000000020252A7
:10000300CD30E11520E00FC083C08288828C83CD80
:0C001300F0D082D08322CDF222CDF62264
:10001F00CB30E11520E00FC083C08289828A83CB69
:0C002F00F0D082D08322CBF322CBF7224A
:10003B00EB30E11320E00EC083C08289828A83E01B
:10004B00D082D08322E3226405700EC083C08289E4
:0B005B00828A8393D082D08322E722A8
:040066001103016E13
:04006A00113B0174D1
:06006E0008B800010C229D
:0600740009B900010A2297
:10007A00BB020B1200CFFBA3E0FAA3E0F922400374
:10008A00BB040D1200C3FBA98309E7FA09E7F922A9
:10009A00400D1200B6FBA3E493FAA3E493F92212EB
:0C00AA0000DBFBA98309E3FA09E3F9225B
:0D00B600E92582F582EA3583F583E4932283
:0C00C3008883E92582F8E6C8C583C822BE
:0C00CF00E92582F582EA3583F583E02202
:0C00DB008883E92582F8E2C8C583C822AA
:1000E700D2D57F018002C2D5ED700302024D5407BD
:1000F7002323F58289F0EAFDEB7001225403458240
:100107002390015173E608F70920D50470F7803F63
:10011700DEF3DFF1803989828D83E608F0A320D5ED
:100127000470F7802ADEF3DFF18024E608F3092064
:10013700D50470F78019DEF3DFF1801388828C8392
:10014700E0A3F70920D50470F78004DEF3DFF1029E
:10015700024A80B180AF80BE80D180E080DE8051CE
:10016700806B80168014803480218099809780A6C8
:1001770080B980438041803C8068E208F70920D538
:100187000470F780CADEF3DFF180C4E208F30920C8
:10019700D50470F780B9DEF3DFF180B389828D83F0
:1001A700E208F0A320D50470F780A4DEF3DFF18026
:1001B7009E0202250201FF88828C83E493A3F7093C
:1001C70020D50470F68088DEF2DFF080F888828C14
:1001D70083E0A3F30920D50470F780E9DEF3DFF1AC
:1001E70080E388828C83E493A3F30920D50470F617
:1001F70080D3DEF2DFF080CD88828C83E493A3C9BD
:10020700C582C9CDC583CDF0A3C9C582C9CDC58374
:10021700CD20D50470E680ADDEE2DFE080A78882DE
:100227008C83E0A3C9C582C9CDC583CDF0A3C9C559
:1002370082C9CDC583CD20D50470E780DFDEE3DF3B
:03024700E180D97A
:08024A00A9F022E4FBFAF922FD
:0F02520075811CE4787FF6D8FD75A0FF02026469
:030261000000009A
:10026400740C2581F581750805750902750A617597
:10027400800075900075A000E4FE7F017B01FA798F
:100284000874F52581F812065E7A007B0174F52561
:1002940081F8EBFD14FCAB08AA09A90A7E0C120034
:1002A400E71205137B017908E4FA74F52581F81245
:1002B40004467A007B0174F52581F8EBFD14FCAB50
:1002C40008AA09A90A7E0C1200E7C2B3C2B4C2B5D7
:1002D400C2B6E4FEFA7F027B01790874F52581F841
:1002E40012065E7A007B0174F52581F8EBFD14FC9F
:0B02F400AB08AA09A90A7E0C1200E763
:1002FF00050BE4FE7F017B017908FA74F52581F87F
:10030F0012065E7A007B0174F52581F8EBFD14FC73
:10031F00AB08AA09A90A7E0C1200E7AF0B12051F42
:10032F00E4FEFA7F037B01790874F52581F8120644
:10033F005E7A007B0174F52581F8EBFD14FCAB08A8
:10034F00AA09A90A7E0C1200E7AF0B120548E4FEBA
:10035F00FA7F147B01790874F52581F812065E7A0D
:10036F00007B0174F52581F8EBFD14FCAB08AA099D
:10037F00A90A7E0C1200E7AF0B120591E4FEFA7F7B
:10038F00047B01790874F52581F812065E7A007BEB
:10039F000174F52581F8EBFD14FCAB08AA09A90A35
:1003AF007E0C1200E712060EE4FEFA7F027B017943
:1003BF000874F52581F812065E7A007B0174F52525
:1003CF0081F8EBFD14FCAB08AA09A90A7E0C1200F8
:0103DF00E736
:1003E000AF0B7D011205CAE4FEFA7F057B01790897
:1003F00074F52581F812065E7A007B0174F525817B
:10040000F9AF0BE4FD1205CAE4FEFA7F017B017926
:100410000874F52581F812065E7A007B0174F525D3
:0A04200081F9E50BB4040920B706CA
:10042A00E4F50B0202FFE50BB4040280030202FFAB
:06043A0020B7030202FFDF
:06044000750B010202FF32
:10044600C0008B198A1A891B30B01A20B117AB1954
:10045600AA1AA91B12006AFD12006AFC12003BF8D8
:10046600740112000330B11420B011AB19AA1AA9F5
:100476001B90000312007A740112001F30B211ABF8
:1004860019AA1AA91B90000612007A740112001FFD
:1004960030B01430B111AB19AA1AA91B9000091279
:1004A600007A740112001FAB19AA1AE51B240BF976
:1004B60050010A7C007D01A881E6F8E924F5F9409F
:1004C600011A12006A12006612006A120066120011
:1004D6006A12006612006A12006612006A1200664C
:1004E60012006A12006612006A12006612006A1290
:1004F600006612006A12006612006A120066120096
:0D0506006A12006612003B120003158122EC
:0C0513007580FFC2B3C2B4C2B5C2B622EC
:10051F008F0CEF14601514601714600514600780BA
:01052F0014B7
:10053000D292D29322D294D29522D296D29722D21C
:0805400090D29122020615225F
:100548008F0CEF14602514602F14600514600F8061
:01055800346E
:10055900C282C283C292C293D2A2D2A322C284C24D
:1005690085C294C295D2A4D2A522C286C287C29658
:10057900C297D2A6D2A722C280C281C290C291D20A
:08058900A0D2A12202061522F6
:100591008F0CEF14601D14602314600514600B8030
:0105A1002435
:1005A200C2A2C2A3D292D29322C2A4C2A5D294D290
:1005B2009522C2A6C2A7D296D29722C2A0C2A1D227
:0805C20090D2912202061522DD
:1005CA008F0C8D0DE50C146021146029146005143C
:0405DA00600D802C04
:1005DE00E50DB40103D2B422C2B422E50DB4010379
:1005EE00D2B522C2B522E50DB40103D2B622C2B6EF
:1005FE0022E50DB40103D2B322C2B32202061522A4
:07060E007580FF75900022CA
:06061500740C2581F58143
:10061B0075800075900075A000E4FE7F01FBFAF970
:10062B0074F52581F812065E7A007B0174F525813D
:10063B00F97580FF7590FF75A0FFE4F9FEFB7F0154
:10064B0074F52581F812065E7A007B0174F525811D
:03065B00F980BD66
:10065E00740C2581F581C0008E0E8F0F8B108A11C0
:10066E008912850E13850F14E5134514604D75150B
:0A067E00017516E7E5154516603713
:10068800E4F5177518FFE5174518600AE5181518F9
:1006980070F4151780F07B01E4FA791074F4258161
:1006A800F81204467A007B0174F42581F9E51615E1
:1006B8001670C7151580C3E514151470B11513808D
:1006C800ADAB10AA11E512240BF950010A7C007D8C
:1006D80001A881E6F8E924F5F940011A12006A1226
:1006E800006612006A12006612006A1200661200A2
:1006F8006A12006612006A12006612006A12006628
:1007080012006A12006612006A12006612006A126B
:10071800006612006A12006612006A120066120071
:0B0728003B12000374F32581F58122D1
:00000001FF
